{
  "_format": "hh-sol-artifact-1",
  "contractName": "Transactions",
  "sourceName": "contracts/Transactions.sol",
  "abi": [
    {
      "anonymous": false,
      "inputs": [
        {
          "indexed": false,
          "internalType": "address",
          "name": "from",
          "type": "address"
        },
        {
          "indexed": false,
          "internalType": "address",
          "name": "recevier",
          "type": "address"
        },
        {
          "indexed": false,
          "internalType": "uint256",
          "name": "amount",
          "type": "uint256"
        },
        {
          "indexed": false,
          "internalType": "string",
          "name": "itemName",
          "type": "string"
        },
        {
          "indexed": false,
          "internalType": "uint256",
          "name": "timestamp",
          "type": "uint256"
        }
      ],
      "name": "Transfer",
      "type": "event"
    },
    {
      "inputs": [
        {
          "internalType": "address payable",
          "name": "receiver",
          "type": "address"
        },
        {
          "internalType": "uint256",
          "name": "amount",
          "type": "uint256"
        },
        {
          "internalType": "string",
          "name": "itemName",
          "type": "string"
        }
      ],
      "name": "addToBlockchain",
      "outputs": [],
      "stateMutability": "nonpayable",
      "type": "function"
    },
    {
      "inputs": [],
      "name": "getAllTransactions",
      "outputs": [
        {
          "components": [
            {
              "internalType": "address",
              "name": "sender",
              "type": "address"
            },
            {
              "internalType": "address",
              "name": "recevier",
              "type": "address"
            },
            {
              "internalType": "uint256",
              "name": "amount",
              "type": "uint256"
            },
            {
              "internalType": "string",
              "name": "itemName",
              "type": "string"
            },
            {
              "internalType": "uint256",
              "name": "timestamp",
              "type": "uint256"
            }
          ],
          "internalType": "struct Transactions.TransferStruct[]",
          "name": "",
          "type": "tuple[]"
        }
      ],
      "stateMutability": "view",
      "type": "function"
    }
  ],
  "bytecode": "0x608060405234801561001057600080fd5b50610a0f806100206000396000f3fe608060405234801561001057600080fd5b50600436106100365760003560e01c806327506f531461003b578063eb12da4a14610059575b600080fd5b610043610075565b604051610050919061075b565b60405180910390f35b610073600480360381019061006e91906104de565b610226565b005b60606000805480602002602001604051908101604052809291908181526020016000905b8282101561021d57838290600052602060002090600502016040518060a00160405290816000820160009054906101000a900473ffffffffffffffffffffffffffffffffffffffff1673ffffffffffffffffffffffffffffffffffffffff1673ffffffffffffffffffffffffffffffffffffffff1681526020016001820160009054906101000a900473ffffffffffffffffffffffffffffffffffffffff1673ffffffffffffffffffffffffffffffffffffffff1673ffffffffffffffffffffffffffffffffffffffff168152602001600282015481526020016003820180546101829061090a565b80601f01602080910402602001604051908101604052809291908181526020018280546101ae9061090a565b80156101fb5780601f106101d0576101008083540402835291602001916101fb565b820191906000526020600020905b8154815290600101906020018083116101de57829003601f168201915b5050505050815260200160048201548152505081526020019060010190610099565b50505050905090565b60006040518060a001604052803373ffffffffffffffffffffffffffffffffffffffff1681526020018573ffffffffffffffffffffffffffffffffffffffff16815260200184815260200183815260200142815250908060018154018082558091505060019003906000526020600020906005020160009091909190915060008201518160000160006101000a81548173ffffffffffffffffffffffffffffffffffffffff021916908373ffffffffffffffffffffffffffffffffffffffff16021790555060208201518160010160006101000a81548173ffffffffffffffffffffffffffffffffffffffff021916908373ffffffffffffffffffffffffffffffffffffffff1602179055506040820151816002015560608201518160030190805190602001906103589291906103a9565b506080820151816004015550507fc4b32d7ff75a51e487f3cbb5d3202f2efecca1f4c2b987e0039c1d3220b48a83338484844260405161039c959493929190610701565b60405180910390a1505050565b8280546103b59061090a565b90600052602060002090601f0160209004810192826103d7576000855561041e565b82601f106103f057805160ff191683800117855561041e565b8280016001018555821561041e579182015b8281111561041d578251825591602001919060010190610402565b5b50905061042b919061042f565b5090565b5b80821115610448576000816000905550600101610430565b5090565b600061045f61045a846107ae565b61077d565b90508281526020810184848401111561047757600080fd5b6104828482856108c8565b509392505050565b600081359050610499816109ab565b92915050565b600082601f8301126104b057600080fd5b81356104c084826020860161044c565b91505092915050565b6000813590506104d8816109c2565b92915050565b6000806000606084860312156104f357600080fd5b60006105018682870161048a565b9350506020610512868287016104c9565b925050604084013567ffffffffffffffff81111561052f57600080fd5b61053b8682870161049f565b9150509250925092565b6000610551838361066d565b905092915050565b61056281610892565b82525050565b61057181610844565b82525050565b61058081610844565b82525050565b6000610591826107ee565b61059b8185610811565b9350836020820285016105ad856107de565b8060005b858110156105e957848403895281516105ca8582610545565b94506105d583610804565b925060208a019950506001810190506105b1565b50829750879550505050505092915050565b6000610606826107f9565b6106108185610822565b93506106208185602086016108d7565b6106298161099a565b840191505092915050565b600061063f826107f9565b6106498185610833565b93506106598185602086016108d7565b6106628161099a565b840191505092915050565b600060a0830160008301516106856000860182610568565b5060208301516106986020860182610568565b5060408301516106ab60408601826106e3565b50606083015184820360608601526106c382826105fb565b91505060808301516106d860808601826106e3565b508091505092915050565b6106ec81610888565b82525050565b6106fb81610888565b82525050565b600060a0820190506107166000830188610577565b6107236020830187610559565b61073060408301866106f2565b81810360608301526107428185610634565b905061075160808301846106f2565b9695505050505050565b600060208201905081810360008301526107758184610586565b905092915050565b6000604051905081810181811067ffffffffffffffff821117156107a4576107a361096b565b5b8060405250919050565b600067ffffffffffffffff8211156107c9576107c861096b565b5b601f19601f8301169050602081019050919050565b6000819050602082019050919050565b600081519050919050565b600081519050919050565b6000602082019050919050565b600082825260208201905092915050565b600082825260208201905092915050565b600082825260208201905092915050565b600061084f82610868565b9050919050565b600061086182610868565b9050919050565b600073ffffffffffffffffffffffffffffffffffffffff82169050919050565b6000819050919050565b600061089d826108a4565b9050919050565b60006108af826108b6565b9050919050565b60006108c182610868565b9050919050565b82818337600083830152505050565b60005b838110156108f55780820151818401526020810190506108da565b83811115610904576000848401525b50505050565b6000600282049050600182168061092257607f821691505b602082108114156109365761093561093c565b5b50919050565b7f4e487b7100000000000000000000000000000000000000000000000000000000600052602260045260246000fd5b7f4e487b7100000000000000000000000000000000000000000000000000000000600052604160045260246000fd5b6000601f19601f8301169050919050565b6109b481610856565b81146109bf57600080fd5b50565b6109cb81610888565b81146109d657600080fd5b5056fea264697066735822122051519e5061f820a51e697fc6b47afcaa70c08022d9f17c29634d49945bde44c964736f6c63430008000033",
  "linkReferences": {},
  "deployedLinkReferences": {}
}